:020000040800F2
:10000000D04A00204D0100085501000857010008A2
:10001000590100085B0100085D01000800000000B4
:100020000000000000000000000000005F01000868
:10003000E519000800000000097600087575000841
:1000400067010008670100086701000867010008F0
:1000500067010008670100086701000867010008E0
:1000600067010008670100086701000867010008D0
:1000700067010008670100086701000867010008C0
:1000800067010008670100086701000867010008B0
:1000900067010008670100086701000867010008A0
:1000A0006701000867010008670100086701000890
:1000B0006701000867010008670100086701000880
:1000C0006701000867010008670100086701000870
:1000D00067010008E71900086701000867010008C8
:1000E0006701000867010008670100086701000850
:1000F0006701000867010008670100086701000840
:10010000670100086701000867010008670100082F
:10011000670100086701000867010008670100081F
:10012000670100086701000867010008670100080F
:10013000DFF80CD007F018FC00480047F118000861
:10014000D04A0020EFF30580704700000648804742
:1001500006480047FEE7FEE7FEE7FEE7FEE7FEE7AC
:10016000FEE7FEE7FEE7FEE74F0200083101000868
:100170000CB50020019000906C48006840F480307D
:100180006A49086000BF6948006800F400300090C8
:100190000198401C0190009818B90198B0F5A06F23
:1001A000F1D16248006800F4003010B101200090E5
:1001B00001E0002000900098012843D15C480068CD
:1001C00040F010005A4908600846006820F003001B
:1001D00008600846006840F0020008605348406824
:1001E000524948600846406848600846406840F404
:1001F000806048600846406820F47C1048600846EB
:10020000406840F4E81048600846006840F080709C
:10021000086000BF4548006800F000700028F9D071
:100220004248406820F00300404948600846406862
:1002300040F00200486000BF3C48406800F00C00FD
:100240000828F9D10CBD10B5FFF792FF10BD10B50D
:100250003648006840F001003449086008464068AC
:10026000344908403149486008460068324908402E
:100270002E4908600846006820F48020086008467F
:10028000406820F4FE0048604FF41F008860FFF7CC
:10029000DAFF4FF000602949086010BD10B5002159
:1002A00000200022214B5B6803F00C0121B10429DE
:1002B00006D0082928D107E0214B224C236027E0F3
:1002C0001F4B204C236023E0184B5B6803F4701035
:1002D000164B5B6803F48032022303EB904022B993
:1002E000194B4343174C23600DE0104B5B6803F43C
:1002F000003323B1144B4343124C236003E0104BF3
:100300004343104C236003E00D4B0E4C236000BFB1
:1003100000BF064B5B68C3F303130C4CE15C094B55
:100320001B68CB40074C236010BD0000001002404A
:10033000002002400000FFF8FFFFF6FE08ED00E09D
:1003400000127A000000002000093D000400002097
:1003500031490143314A1160704770B500210023D3
:100360000F22C47804B32D4C246804F4E064C4F56F
:10037000E064210AC1F10403CA40447804FA03F19D
:100380008478144021430901254C0678A15504784E
:1003900004F01F050124AC4005786D11AD0005F196
:1003A000E025C5F8004109E0047804F01F050124A8
:1003B000AC401C4D0678761145F8264070BD1A4AAF
:1003C0000A400243154B1B1F1A60704739B1134A8C
:1003D000121D12680243114B1B1D1A6006E00F4AE2
:1003E000121D126882430D4B1B1D1A6070470428B2
:1003F00008D14FF0E021096941F004014FF0E022FB
:10040000116107E04FF0E021096921F004014FF08C
:10041000E0221161704700000000FA050CED00E0D9
:1004200000E400E080E100E080FFFF1F30B943F20C
:10043000DB028100A1F1C0410A6005E043F2D20273
:100440008100A1F1C0410A606FF07042411C890037
:10045000A1F1C0410A608100A1F1C041C1F80421AD
:10046000704710280AD118214FF020421166402110
:1004700051664FF0FC319166D16610E01821F74AC1
:10048000116040214FF02042C2F884104FF0FC313F
:10049000F24A083211604FF02042C2F88C107047C7
:1004A0001820EE492031086000200906C1F8A40098
:1004B0004FF0FC30E94928310860091D0860091D2A
:1004C00008607047D0E901121143C2681143026904
:1004D00011434269114382691143C2691143026A9F
:1004E0001143426A1143826A1143C26A1143026B8B
:1004F000114302689200A2F1C0421160816808298C
:100500000BD101688900A1F1C041096841F04002A6
:1005100001688900A1F1C0410A60416B0968426B22
:10052000526841EA0211426B926841EA0221426B31
:10053000928941EA0241426B128A41EA0251426BBE
:10054000127D41EA0261426B926911430268521CBA
:100550009200A2F1C0421160C16AB1F5804F1BD177
:10056000816B0968826B526841EA0211826B926862
:1005700041EA0221826B128A41EA0251826B127DAA
:1005800041EA0261826B9269114302689200A2F112
:10059000C042C2F8041107E06FF0704201688900A0
:1005A000A1F1C041C1F80421704730B500210022FB
:1005B0000023446844F0080485682C43C5682C4334
:1005C00005692C43456944EA4524856944EA453177
:1005D000C4692468C5696D6844EA0524C5692D8924
:1005E00044EA0544C5692D7B44EA0562046A24682F
:1005F000056A6D6844EA0524056A2D8944EA0544C4
:10060000056A2D7B44EA05630468102C05D14FF080
:1006100020442166A266E36608E0904C21604FF01A
:100620002044C4F888208D4C0C34236030BD016810
:1006300041F01001426841EA4221826841EA4231B8
:10064000864A20321160C1680968C268526841EA6E
:100650000221C268128941EA0241C268127B41EA62
:1006600002617E4A28321160016909680269526894
:1006700041EA02210269128941EA02410269127BC0
:1006800041EA0261754A2C32116041690968426988
:10069000526841EA02214269128941EA02414269F3
:1006A000127B41EA02614FF02042C2F8B01070475D
:1006B000002101600221416000218160C16001616F
:1006C00041618161C16101624FF480514162490021
:1006D00081620021C16201630F21426B1160426B94
:1006E0005160FF21426B91600F21426BD160426BE0
:1006F0001161426B51610021426B91610F21826B4C
:100700001160826B5160FF21826B91600F21826BBF
:10071000D160826B1161826B51610021826B9161AA
:10072000704710210160002141608160C16001615A
:1007300041618161FC21C2691160C2695160C26975
:100740009160C269D160026A1160026A5160026AF6
:100750009160026AD1607047002101604160816050
:10076000FC21C2681160C2685160C2689160C268B1
:10077000D160026911600269516002699160026989
:10078000D160426911604269516042699160426979
:10079000D160704751B18200A2F1C042126842F0AC
:1007A00001038200A2F1C042136009E08200A2F1BD
:1007B000C04212682A4B1A408300A3F1C0431A605A
:1007C000704799B1102808D14FF02042126E42F0C4
:1007D00004024FF020431A661DE0204A126842F0DE
:1007E00004024FF02043C3F8802014E0102809D100
:1007F0004FF02042126E1A4BDB1E1A404FF020437E
:100800001A6608E0154A1268154BDB1E1A404FF0B5
:100810002043C3F88020704748B11049203109684F
:1008200041F004014FF02042C2F8A01009E00B494A
:10083000203109680A4AD21E11404FF02042C2F806
:10084000A0107047B9B110280CD14FF02042126EA1
:1008500042F040024FF020431A661FE0800000A0E3
:10086000FEFF0F00724A126842F040024FF0204330
:10087000C3F8802012E0102808D14FF02042126EF9
:100880006C4B1A404FF020431A6607E0684A126822
:10089000684B1A404FF02043C3F880207047014650
:1008A0000020102903D14FF02042506F02E0604A2F
:1008B00014321068704710B5F2B1102807D14FF00C
:1008C00020435B6E0B434FF02044636632E0B0F58B
:1008D000807F08D1564B1B1D1B680B434FF02044F3
:1008E000C4F8843026E0524B24331B680B434FF08E
:1008F0002044C4F8A4301DE0102807D14FF0204355
:100900005B6E8B434FF02044636613E0B0F5807F4D
:1009100008D1474B1B1D1B688B434FF02044C4F884
:10092000843007E0424B24331B688B434FF0204454
:10093000C4F8A43010BD10B5024600200023102AD0
:1009400003D14FF02044636E09E0B2F5807F03D1FC
:10095000374C241D236802E0354C2434236803EA15
:1009600001040CB1012000E0002010BD102807D1C7
:100970004FF02042526E8A434FF020435A6613E0F4
:10098000B0F5807F08D12A4A121D12688A434FF0C1
:100990002043C3F8842007E0254A243212688A43A2
:1009A0004FF02043C3F8A420704770B502460020E2
:1009B000002300240025102A03D14FF02046736E37
:1009C00009E0B2F5807F03D1194E361D336802E08D
:1009D000174E2436336803EA010403EAD10514B143
:1009E0000DB1012000E0002070BD102808D14FF0AB
:1009F0002042526E22EAD1024FF020435A6615E09F
:100A0000B0F5807F09D10A4A121D126822EAD1028C
:100A10004FF02043C3F8842008E0054A24321268CE
:100A200022EAD1024FF02043C3F8A420704700000F
:100A3000800000A0BFFF0F0010B50446CC488442E0
:100A400008D10121042000F02DFB0021042000F03A
:100A500029FB46E0C748844208D10121082000F064
:100A600021FB0021082000F01DFB3AE0C24884422F
:100A700008D10121102000F015FB0021102000F00A
:100A800011FB2EE0BD48844208D10121202000F056
:100A900009FB0021202000F005FB22E0B848844239
:100AA00008D10121402000F0FDFA0021402000F093
:100AB000F9FA16E0B348844208D10121802000F001
:100AC000F1FA0021802000F0EDFA0AE0AE488442FD
:100AD00007D10121801500F0E5FA0021A01500F0F2
:100AE000E1FA10BD10B50121084600F0DBFA002143
:100AF000012000F0D7FA10BD2DE9F0410246002593
:100B00000026002000230024002791F803C00CF0E9
:100B10000F0591F803C00CF0100CBCF1000F03D0CE
:100B200091F802C04CEA050591F800C0BCF1000F35
:100B300031D0146800202BE04FF0010C0CFA00F3C8
:100B4000B1F800C00CEA03069E4220D183004FF0AA
:100B50000F0C0CFA03F7BC4305FA03FC4CEA04043F
:100B600091F803C0BCF1280F06D14FF0010C0CFA2C
:100B700000FCC2F814C00AE091F803C0BCF1480FB1
:100B800005D14FF0010C0CFA00FCC2F810C0401C5B
:100B90000828D1D31460B1F800C0BCF1FF0F34DDD8
:100BA000546800202EE000F1080C4FF0010808FA0C
:100BB0000CF3B1F800C00CEA03069E4221D1830079
:100BC0004FF00F0C0CFA03F7BC4305FA03FC4CEA98
:100BD000040491F803C0BCF1280F05D100F1080C02
:100BE00008FA0CF8C2F8148091F803C0BCF1480F61
:100BF00007D100F1080C4FF0010808FA0CF8C2F810
:100C00001080401C0828CED35460BDE8F0814FF618
:100C1000FF710180022181700421C170704702467A
:100C2000002093680B400BB1012000E000207047CA
:100C30000146886880B2704702460020D3680B40A6
:100C40000BB1012000E0002070470146C86880B267
:100C5000704701617047416170470AB1016100E06E
:100C600041617047C16070474FF480320A4382612E
:100C70008161826182698269704702460020434B2C
:100C800018684FF68073184040EA021008433F4B43
:100C9000186070473E49C8617047F0B50A460023A6
:100CA00000240021002500F00046B6F1004F02D1DB
:100CB000364EF16901E0354E7168C0F3034583B2E9
:100CC00000F44016B6F5401F08D121F070612F4E98
:100CD000766826F070662D4F7E6012E000F4801674
:100CE000B6F5801F06D1032606FA05F4A14341F0AC
:100CF000706106E0460D360103FA06F6B14341F095
:100D0000706122B1460D360103FA06F6314300F058
:100D10000046B6F1004F02D11C4EF16101E01B4EBE
:100D20007160F0BD30B500228B071C0F0F2303FA52
:100D300004F2164B08338C1053F824309343134CB1
:100D400008348D1044F8253023468C1053F8243095
:100D50008C07240F00FA04F423430C4C08348D1044
:100D600044F8253030BD0A49DC3108607047000086
:100D700000080140000C0140001001400014014037
:100D800000180140001C014000200140000001400B
:100D900000002042DF48006840F00100DD490860A3
:100DA00008464068DC490840DA494860084600685F
:100DB000DA490840D74908600846006820F48020D6
:100DC00008600846406820F4FE0048604FF41F00A9
:100DD00088607047CF49096821F48031CD4A11609D
:100DE0001146096821F480211160B0F5803F03D0DD
:100DF000B0F5802F0ED106E0C649096841F4803174
:100E0000C44A116007E0C349096841F4A021C14AFE
:100E1000116000E000BF00BF704710B5014600221E
:100E2000002300204A11012A02D1BA4C236806E0AF
:100E3000022A02D1B74C236A01E0B64C636A01F082
:100E40001F02012494401C400CB1012000E000204E
:100E500010BD38B5002000900024002500BF3120CF
:100E6000FFF7DBFF05460098401C00900098B0F5A6
:100E7000A06F01D0002DF2D03120FFF7CEFF08B1D6
:100E8000012400E00024204638BD01460020A14A8C
:100E9000106820F0F80040EAC10010607047A049D7
:100EA00008607047024600209A4B586820F47C1076
:100EB00042EA01031843974B586070479849086607
:100EC000704701460020934A506820F00300084311
:100ED000506070478F48406800F00C007047014632
:100EE00000208C4A506820F0F000084350607047A2
:100EF00001460020874A506820F4E06008435060B3
:100F0000704701460020834A506820F4605040EA50
:100F1000C1005060704729B17E4A527A02437D4B2E
:100F20005A7204E07B4A527A82437A4B5A72704773
:100F30007B49D8310860704701460020754A5068E7
:100F400020F440400843506070470021714A20322D
:100F50001170704A82F82010012802D004280AD1AA
:100F600004E001216B4A2032117005E00521694A35
:100F70002032117000E000BF00BF7047694908606F
:100F800070476449096A0143624A116270476549C2
:100F900044390860704730B5002100220024002346
:100FA0005C4D6D6805F00C0121B1042905D00829BC
:100FB00023D105E05C4D056022E05B4D05601FE03C
:100FC000544D6D6805F47012524D6D6805F480340F
:100FD000022505EB92421CB9544D554305600BE0C8
:100FE0004C4D6D6805F400351DB1504D55430560FD
:100FF00002E04D4D5543056002E04B4D056000BFDA
:1010000000BF444D6D6805F0F0010909484D6B5C67
:101010000568DD4045603F4D6D6805F4E061090AF3
:10102000434D6B5C4568DD4085603A4D6D6805F465
:101030006051C90A3E4D6B5C4568DD40C560354D69
:101040006D6805F44041890B3A4D6B5CC568B5FB92
:10105000F3F5056130BD29B12E4A526902432D4B8B
:101060005A6104E02B4A526982432A4B5A61704705
:1010700029B1284A92690243264B9A6104E0254A25
:1010800092698243234B9A61704729B1214AD26900
:101090000243204BDA6104E01E4AD26982431D4BB1
:1010A000DA61704729B11B4AD2680243194BDA60F2
:1010B00004E0184AD2688243164BDA60704729B1BF
:1010C000144A12690243134B1A6104E0114A12696F
:1010D0008243104B1A6170471249403908607047CB
:1010E0000F49C86470470B49C87170470948406A86
:1010F00040F0807007494862704701460020054A69
:1011000092680A400AB1012000E0002070470149BE
:1011100088727047001002400000FFF8FFFFF6FEE3
:10112000000042428004424200127A0000093D0061
:10113000140000202400002010B50446BE4884425C
:1011400008D101218014FFF7ADFF0021A014FFF7A3
:10115000A9FF16E0B948844208D101210014FFF725
:10116000AEFF00212014FFF7AAFF0AE0B448844232
:1011700007D10121C013FFF7A2FF0021E013FFF701
:101180009EFF10BD10B50022028802F441520B8868
:101190004C8823438C882343CC8823430C892343E6
:1011A0004C8923438C892343CC8923431A430280EF
:1011B000838B4FF2FF74234083830B8A038210BD1D
:1011C0002DE9F04F85B005460C464FF00009022787
:1011D0004FF000084FF0010B0026B246A88B4FF2EB
:1011E00040010840A88302202884B5F81C90A0681C
:1011F000022801D100BF38E0A08810B94FF0010BE0
:1012000001E04FF0020B8D48854200D100E000BFA5
:101210006846FFF7C0FEDDF800A0E088B0F5007F6B
:101220000AD14FEA1A2000EB80004000A168B0FB11
:10123000F1F0401D86B20BE04FEA4B10BAFBF0F024
:1012400000EB80004000A168B0FBF1F0401D86B2C9
:101250000A20B6FBF0F606F00108A6EB0800C0F382
:101260004F074FF6FF7000EA0828022F01DBFF2F1F
:1012700002DD02274FF00008E08840EA080038430A
:101280002884A088A18908436188084321880843ED
:1012900040F4006040EA0909A5F81C9005B0BDE8DB
:1012A000F08F0021018041808180C18001814181D6
:1012B0008181C18107210182704700210180418025
:1012C0008180C1800221816000218181704721B12C
:1012D000028842F04002028004E002884FF6BF73A9
:1012E0001A400280704721B1828B42F4806282836F
:1012F00004E0828B4FF6FF331A408283704730B58B
:10130000002400230C110125A540ABB21AB1858839
:101310001D43858002E085889D43858030BD1AB1DC
:1013200083880B43838002E083888B4383807047EC
:10133000818170470146888970474FF6FF6291426C
:1013400004D0028842F48072028004E002884FF6E2
:10135000FF631A400280704721B1828842F0040284
:10136000828004E082884FF6FB731A4082807047C7
:1013700002884FF2FF731A40028002880A430280FB
:101380007047018841F480510180704721B1028883
:1013900042F40052028004E002884DF6FF731A40C6
:1013A0000280704702460020012901D0108B00E026
:1013B000908A70470146088A7047B1F5804F04D182
:1013C000028842F48042028004E002884BF6FF73F8
:1013D0001A40028070470246002013890B400BB16F
:1013E000012000E000207047CA4302817047F0B539
:1013F0000246002000240023002501F00F070126EB
:10140000BE40B4B20B1101269E40B3B2968806EAE4
:1014100003051689264016B10DB1012000E0002019
:10142000F0BD10B5002201F00F040123A3409AB2D1
:10143000D343038110BD000000300140003800405C
:10144000003C004010B50446FB48844209D101210C
:101450008803FFF727FE00214FF48040FFF722FEAC
:1014600032E0F648844209D101214804FFF727FE03
:1014700000214FF40030FFF722FE25E0F0488442BF
:1014800009D101218804FFF71AFE00214FF48020C2
:10149000FFF715FE18E0EB48844209D10121C8048A
:1014A000FFF70DFE00214FF40020FFF708FE0BE0D0
:1014B000E548844208D101210805FFF700FE00211C
:1014C0004FF48010FFF7FBFD10BD2DE9F04786B00B
:1014D00005460E460024A24600BFA1460027B0895B
:1014E00000B100BF2F462C8A4CF6FF700440F088F4
:1014F00004432C82AC894EF6F3100440B088318945
:101500000843718908430443AC81AC8A4FF6FF401D
:101510000440B0890443AC8201A8FFF73CFDC648F3
:10152000874202D1DDF810A001E0DDF80CA0A88907
:1015300000F4004040B10AEBCA0000EB0A10316829
:101540004900B0FBF1F807E00AEBCA0000EB0A1013
:1015500031688900B0FBF1F86420B8FBF0F00401B9
:101560002009642101FB1089A88900F4004040B1E2
:10157000322000EBC900B0FBF1F000F0070004439B
:1015800008E0322000EB09106421B0FBF1F000F01C
:101590000F0004432C8106B0BDE8F0874FF41651CC
:1015A000016000218180C18001810C2141810021E5
:1015B0008181704710B502460020108A4FF2FF0368
:1015C00018400B884C8823438C882343CC882343C2
:1015D0001843108210BD0021018041808180C180AC
:1015E000704721B1828942F40052828104E08289ED
:1015F0004DF6FF731A4082817047F0B50346002410
:1016000000260025002040F66A17B94200D100BF2D
:101610001846C1F3421401F01F06012707FA06F528
:10162000012C01D10C3004E0022C01D1103000E07B
:1016300014301AB107682F43076002E00768AF4310
:101640000760F0BD1AB1838A0B43838202E0838A6C
:101650008B4383827047028A4FF6F0731A400282EE
:10166000028A0A430282704782894FF2FF731A404E
:10167000828182890A438281704721B1828942F046
:101680000202828104E082894FF6FD731A40828152
:101690007047028A4FF6DF731A400282028A0A43B9
:1016A0000282704721B1028A42F48042028204E041
:1016B000028A4BF6FF731A4002827047C1F3080298
:1016C0008280704701468888C0F30800704781898E
:1016D00041F0010181817047028BD2B20283028BFB
:1016E00042EA012202837047028B02F47F420283A6
:1016F000028B0A430283704721B1828A42F02002A2
:10170000828204E0828A4FF6DF731A408282704739
:1017100021B1828A42F01002828204E0828A4FF66E
:10172000EF731A408282704721B1828A42F0080228
:10173000828204E0828A4FF6F7731A4082827047F1
:1017400021B1828942F40042828103E08289C2F39E
:101750000E028281704721B1828A42F40062828245
:1017600004E0828A4FF2FF731A4082827047828AB5
:101770004FF6FB731A408282828A0A438282704744
:1017800021B1828A42F00202828204E0828A4FF60C
:10179000FD731A408282704702460020B1F5007F37
:1017A00000D100BF13880B400BB1012000E00020E6
:1017B000704701F40072B2F5007F00D100BFCA4348
:1017C0000280704770B502460024002300250020E7
:1017D00040F66A16B14200D100BFC1F3421501F0D4
:1017E0001F03012606FA03F3012D02D19689334027
:1017F00006E0022D02D1168A334001E0968A33407A
:101800000C12012606FA04F41688344013B10CB108
:10181000012000E0002070BD10B50022002340F63A
:101820006A14A14200D100BF0A1201249440A3B25D
:10183000DC43048010BD000000380140004400403B
:1018400000480040004C00400050004010B500240B
:1018500009E042A006F0D6F84FF47A7003F0BDF923
:10186000044604B110BDF4E770B500240DE001F0AA
:101870000AFDC58840A1284601F035FA4FF47A7078
:1018800003F0ABF9044604B170BDF0E710B586B0C3
:1018900000240120ADF804003CA00490AFF25300F6
:1018A00000904FF43470039069463A4802F075FE98
:1018B000044614B1204606B010BD2046FBE710B523
:1018C00086B000240120ADF8040033A00490AFF2EC
:1018D000670000904FF4347003906946304802F07E
:1018E0005CFE044614B1204606B010BD2046FBE75E
:1018F00010B500F0D8FE00F09CF8062000F05CFE69
:10190000284801F0BDFC00214FF4784001F0BEFCF6
:1019100025480388254802880021084600F01EFF5C
:1019200001F0B1FC002422A1204601F0DCF924A042
:1019300006F068F805F03CFC08B1012010BDFFF787
:10194000A5FF08B10120F9E7FFF7B9FF08B10120B1
:10195000F4E705F01AFC00BFFEE7000048554157C8
:101960004549206C6974655F6F732055415254205E
:10197000746573740A000000485541574549204C6E
:101980006974654F53207461736B32007461736BBB
:1019900031000000280000207461736B32000000E9
:1019A0002C000020340000205200002050000020B5
:1019B000485541574549204C6974654F5300000014
:1019C00053746D33324631303320506F7765722057
:1019D000427920485541574549204C6974655F4F0D
:1019E00053000000704710B540F225510648FFF73C
:1019F000E9FE38B10448FFF765FEC4B2214602484B
:101A0000FFF75CFE10BD00000038014008B54FF440
:101A1000A060FEF79DFC25208DF8000001208DF8C8
:101A200001008DF802008DF803006846FEF795FC72
:101A300008BD00B585B001210420FFF719FB012185
:101A40008803FFF715FB4FF40070ADF81000182065
:101A50008DF8130003208DF8120004A95248FFF7F7
:101A60004BF84FF48060ADF8100004208DF813009F
:101A700004A94D48FFF740F84FF4E13000900020F2
:101A8000ADF80400ADF80600ADF80800ADF80C00A4
:101A90000C20ADF80A0069464448FFF716FDFFF731
:101AA000B5FF012240F225514048FFF7A6FD012174
:101AB0003E48FFF796FD05B000BD70B504460D46E3
:101AC00029462046FFF7FAFD00BF80212046FFF798
:101AD00063FE0028F9D070BD2DE9F04107460D46A0
:101AE0001646002405E0295D3846FFF7E6FF601C36
:101AF000C4B2B442F7DB00BF40213846FFF74CFECA
:101B00000028F9D0BDE8F08170B506460C460025E6
:101B100000BF615D3046FFF7D0FF6D1C605D00289F
:101B2000F7D100BF40213046FFF736FE0028F9D03C
:101B300070BD2DE9F04105460C46260AE7B2314654
:101B40002846FFF7BBFD00BF80212846FFF724FE93
:101B50000028F9D039462846FFF7B0FD00BF8021A4
:101B60002846FFF719FE0028F9D0BDE8F08170B5CE
:101B700004460D46E1B20D48FFF7A0FD00BF8021ED
:101B80000A48FFF709FE0028F9D0204670BD10B5BD
:101B9000044600BF20210548FFF7FEFD0028F9D0CC
:101BA0000248FFF78FFD10BD0008014000380140DA
:101BB00000B587B001210803FFF75AFA0121D420AC
:101BC000FFF756FA0120ADF8040003208DF8060057
:101BD00010208DF8070001A9FE48FEF78DFF202098
:101BE000ADF8040018208DF8070001A9FA48FEF7A7
:101BF00083FF4020ADF8040001A9F748FEF77CFF01
:101C00008020ADF8040001A9F348FEF775FF01211B
:101C1000F048FFF71EF80020ADF808004FF482707E
:101C2000ADF80A000020ADF80C000220ADF80E005F
:101C30000120ADF810004002ADF812000820ADF808
:101C400014000020ADF816000720ADF8180002A916
:101C5000E248FFF797FA0121E048FFF738FB07B0A9
:101C600000BD10B504462146DDA005F0CBFE0020E6
:101C700010BD10B504464FF48050E54908600AE0F5
:101C8000E3490868411EE24A116020B90020FFF7CD
:101C9000E8FFC0B210BD0221D048FFF79CFB00282E
:101CA000EED02146CD48FFF743FB4FF48050D84992
:101CB00008600AE0D6490868411ED54A116020B97B
:101CC0000120FFF7CEFFC0B2E4E70121C348FFF7D0
:101CD00082FB0028EED0C148FFF72CFBC0B2D9E749
:101CE00010B500240121BB48FEF7B5FF0520FFF722
:101CF000C0FF00BFFF20FFF7BCFF044604F0010057
:101D00000028F7D10121B348FEF7A3FF10BD10B59D
:101D10000121B048FEF79FFF0620FFF7AAFF01212F
:101D2000AC48FEF796FF10BD10B50446FFF7EFFF75
:101D3000FFF7D6FF0121A748FEF78DFF2020FFF710
:101D400098FFC4F30740FFF794FFC4F30720FFF7A1
:101D500090FFE0B2FFF78DFF01219E48FEF779FF6B
:101D6000FFF7BEFF10BD10B5FFF7D1FF0121994865
:101D7000FEF771FFC720FFF77CFF01219548FEF7B2
:101D800068FFFFF7ADFF10BD70B505460C4616465F
:101D9000FFF7BDFF01218F48FEF75DFF0220FFF72F
:101DA00068FFC4F30740FFF764FFC4F30720FFF7A1
:101DB00060FFE0B2FFF75DFFB6F5807F04DD4FF412
:101DC000807694A005F01EFE03E02878FFF751FF0F
:101DD0006D1C301EA6F101018EB2F6D101217D48A5
:101DE000FEF737FFFFF77CFF70BD2DE9F05F074678
:101DF0000E4614464FF00008C146C2460025AB46C9
:101E000006F0FF0ACAF10000C5B22046E11704EB54
:101E10001161C1F30728E11704EB11610912A4EB6A
:101E2000012101F0FF09BAF1000F20D1B8F1000F34
:101E300005D1224631463846FFF7A6FF64E009E0A7
:101E40004FF4807231463846FFF79EFF06F58076E4
:101E500007F58077B8F10000A8F1010101F0FF0853
:101E6000EED14A4631463846FFF78EFF4CE0B8F1D6
:101E7000000F18D1A94510DDA9EB050000F0FF0BFC
:101E80002A4631463846FFF77FFF2E442F445A46F4
:101E900031463846FFF778FF36E02246314638466D
:101EA000FFF772FF30E0601B84B22046E11704EBBD
:101EB0001161C1F30728E11704EB11610912A4EBCA
:101EC000012101F0FF092A4631463846FFF75CFF41
:101ED0002E442F4409E04FF4807231463846FFF714
:101EE00053FF06F5807607F58077B8F10000A8F17A
:101EF000010101F0FF08EED1B9F1000F04D04A460C
:101F000031463846FFF740FFBDE8F09F70B5054603
:101F10000C46164601212F48FEF79DFE0320FFF7D1
:101F2000A8FEC4F30740FFF7A4FEC4F30720FFF7A1
:101F3000A0FEE0B2FFF79DFE04E0FF20FFF799FE50
:101F400028706D1C301EA6F101018EB2F5D1012161
:101F50002048FEF77EFE70BD2DE9F04100240025EB
:101F60000026002701211B48FEF775FE9F20FFF782
:101F700080FEFF20FFF77DFE0546FF20FFF779FE7C
:101F80000646FF20FFF775FE074601211148FEF7C0
:101F900060FE280440EA062040EA07042046BDE827
:101FA000F08110B5002401210A48FEF754FEAB2051
:101FB000FFF75FFEFF20FFF75CFEFF20FFF759FEF3
:101FC000FF20FFF756FEFF20FFF753FE04460121D6
:101FD000004839E000100140000801400030014095
:101FE0003C3C2D464C4153482D4552524F522D3EBC
:101FF0003E2053504920B5C8B4FDB3ACCAB12165E9
:1020000072726F72436F6465203D2025640A000080
:10201000300000203C3C2D464C4153482D45525247
:102020004F522D3E3E205350495F464C4153485F2E
:1020300050616765577269746520746F6F206C61B9
:10204000726765210A000000FEF703FE204610BDFE
:1020500010B5044601213248FEF7FDFD0320FFF7CD
:1020600008FEC4F30740FFF704FEC4F30720FFF7A0
:1020700000FEE0B2FFF7FDFD10BD10B5FF20FFF739
:10208000F8FD10BD10B504464FF480502549086096
:1020900009E024490868411E224A116018B902204B
:1020A000FFF7DFFD10BD02211F48FFF794F900285C
:1020B000EFD021461C48FFF73BF94FF480501949F7
:1020C000086009E017490868411E164A116018B9EE
:1020D0000320FFF7C6FDE5E701211348FFF77BF971
:1020E0000028EFD01048FFF725F9DBE710B50121F4
:1020F0000B48FEF7B0FDB920FFF7BBFD01210848F2
:10210000FEF7A7FD10BD10B501210548FEF7A3FDA0
:10211000AB20FFF7AEFD01210148FEF79AFD10BD8F
:102120000010014030000020003001402DE9F04156
:1021300080460C461048007820B9FFF739FD012091
:102140000D4908702512E6B2A5F1A101C1EB0112FB
:1021500002EB411106EB4101A1390802C11700EB66
:102160005171CF100548391820224046FFF7CEFEA6
:102170000020BDE8F08100004C0000200030180075
:1021800001B502E00098401E009000980028F9D1A7
:1021900008BD08B501216020FEF76AFF03208DF815
:1021A000020018208DF803004FF48040ADF80000C5
:1021B0006946FE48FEF7A0FC4FF40040ADF8000071
:1021C0006946FA48FEF798FC0120ADF80000694620
:1021D000F648FEF791FC0220ADF800006946F3488E
:1021E000FEF78AFC8020ADF800006946F048FEF753
:1021F00083FC4FF48070ADF800006946EC48FEF7B0
:102200007BFC4FF40070ADF800006946E848FEF72B
:1022100073FC4FF48060ADF800006946E448FEF7B7
:102220006BFC4FF40060ADF800006946E048FEF733
:1022300063FC4FF48050ADF800006946DC48FEF7BF
:102240005BFC4FF40050ADF800006946D848FEF73B
:1022500053FC4FF48040ADF800006946D448FEF7C7
:102260004BFC4FF40040ADF800006946D048FEF743
:1022700043FC4FF48070ADF800006946CB48FEF790
:102280003BFC4FF40070ADF800006946C748FEF70C
:1022900033FC4FF48060ADF800006946C348FEF798
:1022A0002BFC03208DF8020018208DF8030010206D
:1022B000ADF800006946BD48FEF71EFC2020ADF8D1
:1022C00000006946B948FEF717FC8020ADF8000011
:1022D0006946B648FEF710FC4FF40060ADF8000008
:1022E0006946B248FEF708FC10208DF80300032071
:1022F0008DF802000220ADF800006946AC48FEF7F8
:10230000FBFB10208DF8030003208DF802004FF432
:102310008050ADF800006946A448FEF7EDFB08BD0B
:1023200000B597B001210802FEF795FE012001904B
:1023300004200390800607900020029004900590EE
:1023400006900890099008200A9010200B90002019
:102350000C900E900F9010904FF480501190002030
:1023600012901390149001A81590169008A8FEF7EB
:10237000A9F801210020FEF70DFA17B000BD10B535
:10238000CF2005F035FB002005F036FB812005F05D
:1023900033FB302005F030FBED2005F029FB6420F5
:1023A00005F02AFB032005F027FB122005F024FB93
:1023B000812005F021FBE82005F01AFB852005F0BF
:1023C0001BFB102005F018FB782005F015FBCB2037
:1023D00005F00EFB392005F00FFB2C2005F00CFB5F
:1023E000002005F009FB342005F006FB022005F073
:1023F00003FBF72005F0FCFA202005F0FDFAEA20A7
:1024000005F0F6FA002005F0F7FA002005F0F4FADE
:10241000B12005F0EDFA002005F0EEFA1B2005F0E2
:10242000EBFAB62005F0E4FA0A2005F0E5FAA2205E
:1024300005F0E2FAC02005F0DBFA352005F0DCFA01
:10244000C12005F0D5FA112005F0D6FAC52005F017
:10245000CFFA452005F0D0FA452005F0CDFAC72087
:1024600005F0C6FAA22005F0C7FAF22005F0C0FA7E
:10247000002005F0C1FA262005F0BAFA012005F087
:10248000BBFAE02005F0B4FA0F2005F0B5FA2620DB
:1024900005F0B2FA242005F0AFFA0B2005F0ACFAF3
:1024A0000E2005F0A9FA092005F0A6FA542005F03F
:1024B000A3FAA82005F0A0FA462005F09DFA0C200A
:1024C00005F09AFA172005F097FA092005F094FA1A
:1024D0000F2005F091FA072005F08EFA002005F094
:1024E0008BFAE12005F084FA002005F085FA192026
:1024F00005F082FA1B2005F07FFA042005F07CFA33
:10250000102005F079FA072005F076FA2A2005F068
:1025100073FA472005F070FA392005F06DFA0320B0
:1025200005F06AFA062005F067FA062005F064FA5D
:10253000302005F061FA382005F05EFA0F2005F032
:102540005BFA362005F054FAC82005F055FA2A2027
:1025500005F04EFA002005F04FFA002005F04CFA85
:10256000002005F049FAEF2005F046FA2B2005F08F
:102570003FFA002005F040FA002005F03DFA012066
:1025800005F03AFA3F2005F037FA3A2005F030FA24
:10259000552005F031FA112005F02AFA0548FFF719
:1025A000EFFD292005F024FA10BD000000140140C1
:1025B00000180140FCBF020010B50446072C00DDE6
:1025C00010BDFE480470204604EBD0714910A4EB06
:1025D000410139B9F020FA4908804FF4A070F94957
:1025E000088006E04FF4A070F5490880F020F54916
:1025F0000880362005F0FCF9082141EA441005F076
:10260000FBF92A2005F0F4F9002005F0F5F9002087
:1026100005F0F2F9EA490988491EC1F3072005F0DF
:10262000EBF9E7490978491EC8B205F0E5F92B2016
:1026300005F0DEF9002005F0DFF9002005F0DCF9F7
:10264000E0490988491EC1F3072005F0D5F9DD49A5
:102650000978491EC8B205F0CFF92C2005F0C8F959
:1026600000BFADE710B50221D748FEF7F4FA40F6F7
:10267000FF20FFF785FD0221D348FEF7EAFA40F676
:10268000FF20FFF77DFD10BD10B504462CB14FF4BF
:102690008051CE48FEF7DFFA04E04FF48051CB487A
:1026A000FEF7D7FA10BD10B5FFF773FDFFF738FE40
:1026B0000120FFF7E9FFFFF7D5FFFFF760FEBF48F6
:1026C0000078FFF779FF10BD2DE9F04104460D4673
:1026D00016461F462A2005F08BF9201205F08CF9CA
:1026E000E0B205F089F9A119491EC1F30F2005F0E8
:1026F00083F9A119491EC8B205F07EF92B2005F017
:1027000077F9281205F078F9E8B205F075F9E919BA
:10271000491EC1F30F2005F06FF9E919491EC8B22F
:1027200005F06AF9BDE8F08170B504460D46012355
:102730001A4629462046FFF7C7FF70BD70B504460C
:102740000D4600262C2005F053F900BF03E0284673
:1027500005F052F9761CA642F9D370BD2DE9F0417F
:1027600006460F4614461D462B462246394630463D
:10277000FFF7AAFF04FB05F095490988FFF7DEFF84
:10278000BDE8F08170B505460C468D48008885424D
:102790000CDA8C480088844208DA21462846FFF784
:1027A000C3FF8C4801880120FFF7C8FF70BD70B5DA
:1027B0000024002500262E2005F01AF905F012F954
:1027C000044605F00FF9044605F00CF9064605F03D
:1027D00009F90546E012C002A91240EA411040EA98
:1027E000E62070BD70B504460D4629462046FFF729
:1027F0009BFFFFF7DCFF0646304670BD2DE9FF4F1B
:1028000083B081464FF0000AD3460598A0EB090536
:1028100004990698461ACDF8049004980090002D6B
:1028200001DD012705E00DB9002702E04FF0FF3779
:102830006D42002E02DD4FF0010806E016B94FF0A0
:10284000000802E04FF0FF387642B54201DD2C4629
:1028500000E034460020029019E0DDE90010FFF7A7
:1028600091FFAA44B344A24505DDAAEB040A0198EE
:10287000384480B20190A34505DDABEB040B009812
:10288000404480B200900298401C80B20290611CCB
:1028900002988842E1DD07B0BDE8F08F2DE9F041F4
:1028A00004460D4616461F46DDF81880B8F1000FA5
:1028B0000CD03B46324629462046FFF705FF06FB73
:1028C00007F044490988FFF739FF27E0A019401EA7
:1028D00082B22B4629462046FFF790FFE819401E9A
:1028E00083B2A019401E82B2E819401E81B2204670
:1028F000FFF784FFE819401E83B22246294620468E
:10290000FFF77CFFE919491E8BB2A119491E8AB253
:10291000A119491E88B22946FFF770FFBDE8F08172
:102920002DE9F05F05460E4691469B4600240FFABE
:1029300089F70320A0EB49000FFA80FA97E0BBF17A
:10294000000F50D0A0464BE006EB080291B22A19C6
:1029500090B2FFF717FF06EB080291B22A1B90B264
:10296000FFF710FF321991B2A5EB080290B2FFF702
:1029700009FF321B91B2A5EB080290B2FFF702FFEC
:10298000A6EB080291B22A1B90B2FFF7FBFEA6EB62
:10299000080291B22A1990B2FFF7F4FE321B91B2ED
:1029A00005EB080290B2FFF7EDFE321991B205EB8C
:1029B000080290B2FFF7E6FE0EE00000540000208F
:1029C0005000002052000020001801400014014077
:1029D0005E0000205C00002008F101000FFA80F882
:1029E000B845B1DD2FE0F21991B22A1990B2FFF784
:1029F000C9FEF21991B22A1B90B2FFF7C3FE321939
:102A000091B2EA1B90B2FFF7BDFE321B91B2EA1BF6
:102A100090B2FFF7B7FEF21B91B22A1B90B2FFF7FC
:102A2000B1FEF21B91B22A1990B2FFF7ABFE321B36
:102A300091B2EA1990B2FFF7A5FE321991B2EA19E4
:102A400090B2FFF79FFE601C04B2BAF1000F05DAE6
:102A5000A000801D50440FFA80FA07E0E01B8000C0
:102A60000A3050440FFA80FA781E07B200BFBC4209
:102A70007FF765AFBDE8F09F2DE9F05F804689469E
:102A80001646A6F120001FFA80FAFD4909688988D8
:102A9000FB4A1268D28801FB02F0C11700EB5171AA
:102AA000C1F3C707F648006800680AFB070BF44843
:102AB0000068C388F2480068828849464046FFF7AC
:102AC00003FE2C2004F094FF002416E0002510E003
:102AD0001BF8040080212941084020B1E948008802
:102AE00004F08AFF03E0E848008804F085FF681CD2
:102AF000C5B2082DECDB601CC4B2BC42E6DBBDE80D
:102B0000F09F70B504460D46002624E03046DC49AF
:102B1000096889880844DD490988884205DD00265E
:102B2000D7480068C088204484B22046D449096848
:102B3000C9880844D6490988884201DD0026002456
:102B40002A7821463046FFF797FF6D1CCC48006875
:102B50008088304486B228780028D7D170BD70B5FF
:102B600005460E46144624E02846C549096889886A
:102B70000844C6490988884205DD0025C048006828
:102B8000C088304486B23046BD490968C9880844C7
:102B9000BF490988884201DD002500262278314698
:102BA0002846FFF769FF641CB54800688088284400
:102BB00085B220780028D7D170BD70B505460E4685
:102BC000144624E03046AE490968C9880844B04933
:102BD0000988884205DD0026A948006880882844C5
:102BE00085B22846A649096889880844A749098802
:102BF000884201DD00250026227831462846FFF76D
:102C00003BFF641C9E480068C088304486B2207830
:102C10000028D7D170BD2DE9F04389B080468946A0
:102C2000174610231A4649464046FFF74DFD2C2013
:102C300004F0DEFE394601A8FFF778FA002422E00E
:102C400001A810F814604FF6FF7000EA0626012074
:102C500000EB440001A9085C064300250FE04FF497
:102C600000402841304020B18648008804F0C4FE6E
:102C700003E08548008804F0BFFE681CC5B2102D33
:102C8000EDDB601CC4B2102CDADB09B0BDE8F083C8
:102C90002DE9F04105460F4614461FE02846103046
:102CA0007A490988884203DD002507F1100087B2C0
:102CB0003846103076490988884201DD0025002712
:102CC0002688300200EB262086B232463946284656
:102CD000FFF7A1FF05F1100085B2A41C20780028A1
:102CE000DCD1BDE8F0812DE9F04105460C46002617
:102CF00048E020787E2825DC3046614909688988CB
:102D0000084462490988884205DD00265C4800685D
:102D1000C088284485B2284659490968C9880844AA
:102D20005B490988884201DD002600252278294672
:102D30003046FFF7A1FE524800688088304486B2D2
:102D4000641C1FE03046103050490988884203DD7A
:102D5000002605F1100085B2284610304C4909883C
:102D6000884201DD002600252788380200EB272055
:102D700087B23A4629463046FFF74DFF06F110006C
:102D800086B2A41C20780028B3D1BDE8F0812DE9DB
:102D9000F04105460E46144648E020787E2825DCA2
:102DA000284637490968898808443849098888428B
:102DB00005DD002532480068C088304486B23046C0
:102DC0002F490968C988084431490988884201DDCA
:102DD00000250026227831462846FFF74DFE284878
:102DE00000688088284485B2641C1FE028461030A3
:102DF00026490988884203DD002506F1100086B2C5
:102E00003046103022490988884201DD002500261D
:102E10002788380200EB272087B23A4631462846F9
:102E2000FFF7F9FE05F1100085B2A41C20780028F8
:102E3000B3D1BDE8F0812DE9F04106460D461446B8
:102E400036E02846103012490988884203DD002503
:102E500006F1100086B2304610300C4909888842CD
:102E600001DD0026002520787E2813DC2278294603
:102E70003046FFF701FE641C05F1100085B217E033
:102E8000580000205C0000205E0000205000002060
:102E9000520000202788380200EB272087B23A46EC
:102EA00029463046FFF7B7FE05F1100085B2A41C95
:102EB00020780028C5D1BDE8F0812DE9FC4F0C46F3
:102EC0001E464FEA004A9AFBF2FA0AF1010ACDF8CF
:102ED00004A04FEA044A9AFBF6FA0AF1010ACDF877
:102EE00000A04FF00009202801DBBDE8FC8F00FBAB
:102EF00004FABAF1000F00D1F7E700FB04FABAF5C3
:102F0000806F00DBF1E702FB06FABAF1000F00D197
:102F1000EBE702FB06FABAF5804F00DBE5E7EB4B87
:102F2000DDF834A0BAF1000F2BD100211FE00025FD
:102F300017E0DDF82CA01AF801A04FF0800B4BFA37
:102F400005FB0AEA0B0ABAF1000F02D04FF0010AA2
:102F500001E04FF0000A03F801AB05F1010A1FFA86
:102F60008AF5082DE5DB01F1010A1FFA8AF104FB5D
:102F700000FA4FEAEA7B0AEB5B7BB1EBEB0FD6DBA7
:102F80002AE000211FE0002517E0DDF82CA01AF848
:102F900001A04FF0800B4BFA05FB0AEA0B0ABAF1CD
:102FA000000F02D04FF0010A01E04FF0000A03F8D1
:102FB00001AB05F1010A1FFA8AF5082DE5DB01F1E5
:102FC000010A1FFA8AF104FB00FA4FEAEA7B0AEBD6
:102FD0005B7BB1EBEB0FD6DBBC4BBD4F4FF0000C76
:102FE0001AE04FF0000A4FEA194B00FB0B3ED046A7
:102FF0000AE00EEB1A4B9BF800B007F808B0DDF8BA
:1030000004B0DA4408F101089045F2D3DDF800B0CD
:10301000D94417440CF1010CB445E2D3DFF8B0A257
:10302000CDF830A0DDF830A00AF1010ACDF830A0CB
:1030300000BF5AE72DE9F05F81468A4614461D46D7
:10304000DDE90A6B0027B8462B4622465146484622
:10305000FFF73AFB2C2004F0CBFC00BF14E04FF04C
:1030600000080EE016F8011B594504D19948008864
:1030700004F0C2FC03E09848008804F0BDFC08F1AD
:103080000108A045EED37F1CAF42E8D3BDE8F09F16
:103090002DE9F04F8FB00646884614469946DDE983
:1030A000185B274669E0304638448C4909888842D5
:1030B00004DD002608EB09001FFA80F8404648446A
:1030C00087490988884201DD0026B0462878802893
:1030D00025DD2746B5F800A04FEA0A2000EB2A209C
:1030E0001FFA80FA514605A8FFF720F8012105AA2A
:1030F0000E984B46CDE9002002913A461021084631
:10310000FFF7DBFE72484B463A464146CDE9000BDD
:103110003046FFF78FFFF01986B2AD1C2DE0204638
:1031200004EBD071C1F34F0728782038C0B20D905E
:1031300000236C48C288DDE90D015043694A92883A
:103140005043C217049000EB5270664A126802EBBB
:10315000E0008DE80B004B463A4618211020FFF79F
:10316000ACFE5B484B463A464146CDE9000B304643
:10317000FFF760FFF01986B26D1C2878002892D105
:103180000FB0BDE8F08F2DE9F04F8FB080460E46AE
:1031900014461F46DDE9185A0E946BE03046204471
:1031A0004E490988884204DD002608EB04001FFA16
:1031B00080F8404638444A490988884201DD0026A3
:1031C000B0462878802825DD0E94B5F800904FEAA7
:1031D000092000EB29201FFA80F9494604A8FEF7D0
:1031E000A5FF012104AA0D983B46CDE900200291DC
:1031F000102108460E9AFFF760FE35483B46CDE9A0
:10320000000A314640460E9AFFF714FFF01986B2C5
:10321000AD1C2FE0204604EBD071C1F34F010E919D
:1032200028782038C0B20C9000232E48C288DDE9EF
:103230000C0150432B4A928800FB02FB4FEAEB70D3
:103240000BEB5070274A126802EBE0008DE80B0090
:103250003B46182110200E9AFFF72FFE1C483B46D4
:10326000CDE9000A314640460E9AFFF7E3FEF01919
:1032700086B26D1C2878002890D10FB0BDE8F08F81
:10328000194908607047184800687047124A108052
:10329000104A11807047104A128802800D4A128825
:1032A0000A8070470C49088070470A4908807047B7
:1032B00070B50446FFF7E7FFC5882B46074802882C
:1032C00021460020FFF74AFA70BD00003841002077
:1032D000380100205E0000205C000020500000202B
:1032E000520000203C0000205800002070B500244F
:1032F00000254FF4807529464948006803F0FFF91E
:10330000484908600846006800B970BD00200446BE
:1033100008E04449096801EBC4004060006000BF58
:10332000601C0446202CF4D300BFEEE770B50446C1
:103330000D463C49096801EBC50000F068F838B15A
:103340004FF00040E84038490968084336490860B2
:103350003448006800EBC50108684268626020607C
:1033600042681460446000BF00BF70BD70B5044681
:1033700000BFD4E900010860D4E9001048600020D3
:103380006060206000BFA4F12805E988254A126822
:1033900002EBC10000F03BF840B1A9794FF00040CA
:1033A000C8402149096881431F48016070BD002160
:1033B0001D48006848B11C480068B0FA80F11948FF
:1033C000006800EBC100406870470020FCE7014640
:1033D00000200022134B1B6803EBC1035A6801E075
:1033E000401C52680F4B1B6803EBC1039342F7D19B
:1033F000704730B50024002500BF04E02046FFF7E9
:10340000E6FF0544641C202CF8D3284630BD014655
:103410004868884201D1012070470020FCE7000085
:103420003001002060000020640000200EB508205C
:10343000009000BF4FF0FF336A4601A9FB480068C7
:1034400002F09DFA0446002CF4D100980828F1D12E
:1034500001980028EED000F051FC0546DDE901108E
:10346000884700F04BFC401BE4E710B586B01821FC
:10347000684604F045F9AFF24B0000904FF48050DD
:103480000390EBA004900020ADF804006946EB48DF
:1034900001F083F80446204606B010BD2DE9F8433C
:1034A0004021E74804F02CF90020E64908604FF479
:1034B000E0784146E448006803F021F9044614B975
:1034C000E248BDE8F8834146204604F019F9E04897
:1034D0000460E04804600020208125461C34012659
:1034E00005E026812C602546701C86B21C34102E07
:1034F000F7DB08200023CD4A10210090184602F087
:103500004AF8074617B1D148001DDAE7FFF7ADFFCB
:10351000074617B1CD48401DD3E70020D1E72DE97C
:10352000F84F0146002600204FF0FF3A471E009753
:103530004FF0100CE04681460F69CF600F894FEACB
:10354000E77B07EB1B7B4FEA2B1BA7EB0B1B1FFA41
:103550008BF4BB4F57F8247007F06047B7F1C04FAA
:103560007CD1B74F57F8247047F00047DFF8D0B24E
:103570004BF824705F4657F8247027F07F430025EE
:1035800032E0AF4F57F8257027F07F424AB1A5428D
:1035900007D0AB4F57F8257007F04047B7F1404FC1
:1035A00000D01FE09A420CD3B2FBF3F703FB1727BE
:1035B0003FB9B2FBF3F7574513D2B2FBF3FAAC466F
:1035C0000FE09A420DD2B3FBF2F702FB173747B96F
:1035D000B3FBF2FB009FBB4503D2B3FBF2F70097AE
:1035E000A84600BF6F1CBDB2102DCADBBCF1100F86
:1035F00024D0944F386810E0C768B9440789CCEBF1
:10360000CC0BDFF84CE2DEF800E00EEB8B0BBBF8E6
:1036100008B05F4500D102E000680028ECD100BF8F
:1036200080B30769A7EB0907D1F810B0B7FBFBFE21
:103630000BFB1E77ABEB0707CF6047E0B8F1100F2D
:1036400044D00027CF60C8EBC807DFF804B2DBF82E
:1036500000B00BEB870630684DE0FFE7784F57F876
:10366000247007F06047B7F1804F2FD1744F57F89F
:10367000247047F00047DFF8C8B14BF82470714F51
:1036800038681AE022E0D0F810B0D1F810E0F34525
:1036900012D107894FEAE77B07EB1B7B4FEA2B1B15
:1036A000A7EB0B1BDFF898E15EF82BB00BF0404B5B
:1036B000BBF1404F00D102E000680028E3D100BF19
:1036C00020B10027CF600646006814E05D4F3868DF
:1036D0000DE0C768D1F80CB05F4500D909E0CF68AC
:1036E000D0F80CB0A7EB0B07CF60064600680028A7
:1036F000EFD100BF00BF086028B1C768D1F80CB097
:10370000A7EB0B07C76016B94E4F396000E0316078
:1037100002270F71BDE8F88F10B54E4909680160A6
:103720004C4908600021017100220189CB1701EB8F
:1037300013731B11A1EB0313414C44F8232010BD5C
:10374000F0B50146002200203E4B1B6803B9F0BDD6
:103750003C4B186801E0024600688842FBD10368D0
:103760002BB10368DB68C46823440468E3601AB9BA
:10377000344C0368236001E0036813600023036096
:10378000012303710B89DD1703EB15752D11A3EBD5
:1037900005152B4E56F8255025F000451C46DE1722
:1037A00003EB16763611A3EB0616254F47F8265085
:1037B00000BFCCE71CB52348046832E021492068EB
:1037C0000860A069009060690190002308226946A2
:1037D0001648006802F009F96079A0B92046FFF7A1
:1037E0009BFF20894FF6E071884203DA2089103070
:1037F000208114E02089C11700EB11710911A0EBA1
:10380000011121810BE06079012803D12046FFF7E7
:1038100086FE04E06079022801D101202071094868
:10382000046814B1E0680028C8D01CBD68000020FE
:103830005377745F5461736B000000009C0000209C
:1038400038450020740000203001002007030002EA
:103850006C0000207000002010B5F748006848B1E7
:10386000F5480068C068401EF3490968C86008B997
:10387000FFF7A0FF002010BD70B5024600230C68C2
:1038800010681BE00AE0C568CE68B54200D907E0C1
:10389000CD68C668AD1BCD60034600680028F2D134
:1038A00000BF086018B1C568CE68AD1BC5600BB914
:1038B000116000E019600B46214624680029E1D11F
:1038C00070BD70B504460025DC48006800B970BDC5
:1038D000DB480068844201D9D9480468D7480068A9
:1038E000C068A04207D3D5480068C068001BD34910
:1038F0000968C86016E0D2480068001BCF49096813
:10390000C860D048006868B10020CE4909680860E6
:10391000C94805682946C948FFF7AEFFC74800688F
:10392000C5490860C4480068C06808B9FFF742FF8D
:103930000020C2490860C349086000BFC7E70246CB
:1039400000210020BC4B196805E0CB681844914267
:1039500000D101E00968F8E700BF70472DE9F84F92
:1039600006460D4617469846DDE90AB9DDF830A04F
:1039700016B9B548BDE8F88F35B1012D04D0022D38
:1039800002D0B148401CF5E717B9AF48401EF1E737
:10399000B8F1000F02D1AC48801CEBE7B9F1000F81
:1039A00005D0B9F1010F02D0A7481030E2E7BAF113
:1039B000010F05D0BAF1000F02D0A3481130D9E7AA
:1039C00003F012FE0090A148006828B9009803F0A7
:1039D00013FE9D48C01CCDE79C4804689B492068A5
:1039E0000860009803F008FEA76165712661002059
:1039F0002060E060C4F814B084F8069084F807A052
:103A0000012020712089A8F800000020B2E72DE9EC
:103A1000F04705464FF000084FF6F070854203DB93
:103A20008948001DBDE8F08703F0DEFD8146284689
:103A3000E91705EB11710911A5EB01118FB2C7EB65
:103A4000C7008349096801EB80042089A84205D09A
:103A5000484603F0D1FD7C48001DE3E7E0790128EA
:103A60004ED1607901284BD12089C21700EB127228
:103A70001211A0EB0212774B53F8222042F0804241
:103A80000146C31700EB13731B11A0EB0313DFF800
:103A9000C4C14CF823200A212069B0FBF1F201FBDC
:103AA000120068BB2089C21700EB12721211A0EB42
:103AB0000212634653F8222042F000520146C31717
:103AC00000EB13731B11A0EB03134CF823200A2106
:103AD0002069B0FBF1F62089C21700EB12721211B7
:103AE000A0EB0212634653F8222066F31702014648
:103AF000C31700EB13731B11A0EB03134CF8232027
:103B0000207920B101280BD002280DD104E0DFF884
:103B1000388108F105080CE02046FFF711FE00BFD0
:103B20002046FFF7FCFC04E0DFF81C8108F10D08DB
:103B300000BF00BF484603F05FFD404672E72DE935
:103B4000F041044600274FF6F070844203DB3E4804
:103B5000001DBDE8F08103F047FD80462046E117D7
:103B600004EB11710911A4EB01118EB2C6EBC60072
:103B70003749096801EB80052889A04205D04046F5
:103B800003F03AFD3048001DE3E7287920B1012811
:103B900005D002280AD105E02B4F7F1D09E02A4FEE
:103BA0000C3706E02846FFF7CBFD02E0264F0D3725
:103BB00000BF00BF404603F01FFD3846C9E72DE9AE
:103BC000F04704460E464FF000084FF6F07084426E
:103BD00003DB1D48001DBDE8F08716B91A480F30F9
:103BE000F9E703F001FD81462046E11704EB11716E
:103BF0000911A4EB01118FB2C7EBC7001449096882
:103C000001EB80052889A04205D0484603F0F4FC6A
:103C10000D48001DDFE7287920B1012807D00228D0
:103C20001FD119E0DFF8208008F105081CE0DFF85B
:103C3000188008F10C0817E0740000207C000020B8
:103C400078000020800000200103000270000020A6
:103C50006C000020384500202846FFF770FE3060D9
:103C600002E0DFF8908000BF00BF484603F0C4FCCC
:103C70004046B0E72DE9F041044600274FF6F070CA
:103C8000844203DB1B480938BDE8F08103F0ACFC3B
:103C900080462046E11704EB11710911A4EB0111D4
:103CA0008EB2C6EBC6001449096801EB800528896D
:103CB000A04205D0404603F09FFC0E480938E3E7D8
:103CC000287920B1012809D002280BD102E0094F40
:103CD000083F09E02846FFF733FD00BF2846FFF7FD
:103CE0001BFD01E0034F00BF00BF404603F084FC12
:103CF0003846C9E70E0300026C000020514903C991
:103D00007047514800684FF47A71B0FBF1F070478A
:103D100070B50446B4F1FF3F02D14FF0FF3070BDE3
:103D20004FF47A70A4FB005001464FF47A720023DE
:103D3000284603F09BFCF2E770B504464FF47A7016
:103D4000A4FB005001464FF47A720023284603F08A
:103D50008DFC70BD2DE9F04786B004468946924639
:103D60002CB1B9F1000F02D0BAF1000F03D13748DE
:103D700006B0BDE8F0870021D4E9000241EA02075D
:103D800040EA01083048006803F040FD0022304B53
:103D9000CDE9000103F0CBFCCDE9040138464146F2
:103DA00003F041FDCDE90201DDE9042303F0BFFC8E
:103DB00005460E462846314603F041FD0746884633
:103DC000CAF80070C9F800800020D1E72DE9F0475B
:103DD00086B00446894692462CB1B9F1000F02D054
:103DE000BAF1000F03D1194806B0BDE8F0870021F1
:103DF000D4E9000241EA020740EA010812480068DB
:103E000003F004FD0022134BCDE9000103F08FFC09
:103E1000CDE904013846414603F005FDCDE9020134
:103E2000DDE9042303F083FC05460E4628463146AF
:103E300003F005FD07468846CAF80070C9F80080FF
:103E40000020D1E7D0000020000000201000000278
:103E500000408F4080842E4142684A60086042687A
:103E6000116041607047D0E900121160D0E9002173
:103E70005160002141600160704700BFFEE770B5EE
:103E800004460D46207900F0040090B104F12800AA
:103E9000FFF76CFAA08820F00400A080E580A088DD
:103EA00040F00400A080E18804F12800FFF73EFA0A
:103EB00000E0E58070BD2DE9F0470446884608F033
:103EC0001F074FEA581907B101E0A9F10109A06BDA
:103ED00000F0784040EA0900A063F7488088074472
:103EE00007F01F07A06B67F3DF60A063F24800686C
:103EF00000EBC7067068B04205D104F130013046CE
:103F000001F0C4F833E07068A0F1300500BFA86B81
:103F100020F07840A16B21F0784188420CD8A06B4A
:103F200020F07840A96B21F07841401AA16B01F094
:103F300078410843A0630CE0A86B20F07840A16BA7
:103F400021F07841401AA96B01F078410843A86339
:103F500006E0686BA0F1300505F13000B042D6D123
:103F600000BF04F1300105F1300001F08FF8BDE829
:103F7000F0872DE9F0410446A06BC70ECE480068DB
:103F800000EBC706606BB0420ED0606BA0F130054D
:103F9000A86B20F07840A16B21F078410844A96B10
:103FA00001F078410843A86304F13000FFF75BFF9C
:103FB000BDE8F0812DE9F0410027BF498988481C00
:103FC000C11700EBD1614911A0EB4111BA4A9180B0
:103FD000104600681146898800EBC1056868A84250
:103FE00001D1BDE8F0816868A0F1300443E0A68803
:103FF000A06B20F0784018B1A06B401EA0633EE09B
:1040000004F13000FFF72FFF06F0080058B1A08838
:1040100020F00800A08004F12800FFF724FF002012
:10402000A061E06117E006F4806020B1A08820F470
:104030008060A0800FE006F4005040B104F1280039
:10404000FFF711FFA08820F40050A08003E0A088B3
:1040500020F02000A08006F0020048B9A08840F0BF
:104060000400A080E18804F12800FFF75FF9012730
:104070006868A0F1300404F13000A842B7D100BF55
:104080000FB103F033F900BFABE7014601F01000B8
:1040900008B18AA0704701F0040008B189A0F9E7CF
:1040A00001F0200008B189A0F4E701F0080030B168
:1040B00001F0400008B187A0ECE789A0EAE701F031
:1040C000020008B188A0E5E701F4005030B101F02A
:1040D000400008B186A0DDE78AA0DBE78CA0D9E725
:1040E00070B50446C4EBC40000EB40008B4909687E
:1040F00001EB8000C0680068B0F1CC3F2ED1C4EB6A
:10410000C40000EB40008549096801EB8000C068ED
:10411000051D00E02D1DC4EBC40000EB40007F49ED
:10412000096851F82000A84203D92868B0F1CA3FB5
:10413000F0D0C4EBC40000EB40007849096801EB03
:1041400080008068C4EBC40101EB4101734A12682E
:1041500002EB8101C968691A461A12E000BF70A01B
:1041600003F050FCC4EBC40000EB40006B4A126843
:1041700002EB8000416A6CA003F044FC00BF4FF0EA
:10418000FF36304670BDF0B587B000BF64A003F0C5
:1041900039FC6E4803F036FC00BF00BF60A003F09E
:1041A00031FC6BA003F02EFC00BF00BF5CA003F04D
:1041B00029FC684803F026FC00BF00BF58A003F0AC
:1041C00021FC63A003F01EFC00BF002549E0C5EB05
:1041D000C50000EB40005149096801EB80042079DB
:1041E00000F0010000B13BE000BF4DA003F00AFC6D
:1041F0002069FFF775FF0646A088FFF746FF0746D0
:104200002268E168A06CCDE90262CDE90410A068E3
:10421000CDE90070E38850482269616A03F0F2FB3F
:1042200000BFA06948B100BF3DA003F0EBFBA0694F
:10423000C1884AA003F0E6FB09E000BF38A003F004
:10424000E1FB4FF6FF7145A003F0DCFB00BF00BFB0
:1042500033A003F0D7FB3EA003F0D4FB00BF00BFA8
:104260006D1C404800688542B1D3002007B0F0BD06
:1042700070B53C480068401C542100FB01F63146F3
:104280003948006802F03BFA244908600846006893
:1042900008B9364870BD31462048006803F030FA4E
:1042A000334800F0DDFE334800F0DAFE324800F01B
:1042B000D7FE002483E00000B800002052756E6E27
:1042C000696E6700526561647900000044656C6145
:1042D0007900000050656E6454696D654F75740017
:1042E00050656E640000000053757370656E640065
:1042F000517565756550656E6454696D654F75746B
:1043000000000000517565756550656E6400000021
:10431000496D706F737369626C65000084000020E2
:104320005B4552525D20000043555252454E542089
:104330007461736B20257320737461636B206F76D7
:104340006572666C6F77210A0000000090BA000861
:104350000A0000000CBA000814BB00083078252DB4
:104360003778000094000020300100200002000394
:10437000A0000020A8000020B00000200120C4EB15
:10438000C40101EB4101FD4A126802EB8101888002
:10439000C4EBC40000EB4000F849096801EB800061
:1043A0000461C4EBC40000EB4000F44A126802EB65
:1043B000800000F12801F24800F068FE641C0F2C18
:1043C000DCD9F048002101604160EF480068C0EB93
:1043D000C00000EB4000E949096801EB8000E949B1
:1043E0000860084600680461112009688880202060
:1043F000E4490968C880FEF779FF4FF480763146BA
:10440000E248006802F07BF905460DB9E04841E753
:104410003146284603F074F9DE4805600020DD4986
:104420008880002404E0284600F01AFE641C083549
:10443000202CF8D300202DE72DE9F05F07460C462D
:104440004FF000084FF0FF3A17B9D348BDE8F09F8E
:1044500014B9D148801FF9E7206910B9CE48801EF1
:10446000F4E7206810B9CC48C01EEFE7A0881F28E9
:1044700002DDC948001FE9E7A0881F2806D1C74907
:104480002068884202D0C448001FDFE7C449C54AFB
:10449000511AE068884202D9BF481930D6E7E0686F
:1044A00010B94FF43470E0600821E06802F018FEA3
:1044B000E060E068B0F5987F02D2B748401EC5E7DB
:1044C00003F092F8834612E0B7484068A0F128054F
:1044D000B5494868FFF7C7FC05F12801A848FFF770
:1044E000BBFCAF48E96802F029F90020E860AE485B
:1044F00000F0D4FD0028E7D0A14800F0CFFD28B19E
:10450000DFF894A20AF10A0A00BF41E09C48406823
:10451000A0F128059A494868FFF7A5FC584603F022
:104520006BF8D5F8108008229D48E16802F0FCF88D
:1045300006465EB903F058F8834605F12801904815
:10454000FFF78AFCDFF848A200BF21E03246404670
:10455000E16802F0EAFE8146C5F80090A068286292
:10456000EE60E068A8600020A861E8610220A880F1
:10457000A088E880206868614FF0FF30E863002081
:10458000A8642069686200202865C7F800805DE79C
:10459000584603F031F8504658E72DE9F0410546FA
:1045A0000F46002639462846FFF746FF064616B155
:1045B0003046BDE8F0812868C0EBC00000EB400049
:1045C0006E49096801EB800403F00EF88046A0886C
:1045D00020F00200A080A08840F00400A080E188C4
:1045E00004F12800FEF7A2FEFEF7E1FE2838654937
:1045F00048606E48006888B16D48008870B9084608
:1046000000684968884209D06948008830B9404646
:1046100002F0F2FF02F066FE0020CAE7404602F018
:10462000EBFF0020C5E710B586B01821684603F0FF
:1046300067F85A4800904FF4A06003905DA0049082
:104640001F20ADF8040069465D48FFF7A6FF044649
:1046500014B1204606B010BD0020FBE749480068B1
:1046600008B94D487047474800680069FAE745486F
:10467000406808B948487047424840680069FAE70E
:1046800000204049096811B13E490968486A7047ED
:1046900010B53C480068C0680068B0F1CC3F0ED04F
:1046A00000BFAFF2843003F0ADF93648006802690C
:1046B00034480068416A43A003F0A4F900BF3148C0
:1046C000406800682F494968C96888420BD92D485D
:1046D0004068C0682B494968896808442949496885
:1046E000096888421DD200BFAFF2CC3003F08AF9CE
:1046F00024484068026923484068416A3BA003F0AF
:1047000081F900BF00BFAFF2E83003F07BF91D482C
:104710004068C2681B48406801683DA003F072F918
:1047200000BF18484068008A81B246480278801C61
:1047300020F81210134A5268516A821E13781632FA
:1047400002EB4310202202F0C2FF00213D48027814
:10475000163000EB4210C1773A480078401CC0B2D6
:10476000384908700A2806D10020087008464078A9
:1047700040F0800048703448006867E08400002002
:10478000A8000020880000209400002030010020B4
:1047900000020003B8000020070200027B3E000870
:1047A000D04A002000A00020B0000020C00000205F
:1047B0009000002049646C65436F726530303000B2
:1047C0009800002043555252454E54207461736B3B
:1047D0002049443A2025733A256420737461636B41
:1047E000206F766572666C6F77210A0048494748EA
:1047F000455354207461736B2049443A2025733A21
:104800002564205350206572726F72210A000000E7
:1048100048494748455354207461736B2053746171
:10482000636B506F696E7465723A2030782578201A
:10483000546F704F66537461636B3A2030782578FB
:104840000A00000078450020C800002010B1FE4892
:104850000068804710BD10B54FF4AB71FB4802F003
:104860004FFF0A20F9494870AFF2DB10F8490860A1
:104870000020F549086010BD2DE9F04106464FF0D3
:10488000FF37F4480068864202D1F348BDE8F08162
:10489000F2480068864202D1EF480D30F6E7F04852
:1048A0000068864202D3EC480D38EFE702F09CFE28
:1048B0008046C6EBC60000EB4000EA49096801EB00
:1048C0008004A58805F0010018B1E34F0A3F00BF3E
:1048D00074E005F0100028B1E348008810B1002012
:1048E000E149088005F0040040B104F12800FEF71A
:1048F0003DFDA08820F00400A08009E005F008003C
:1049000010B905F4005018B104F12800FFF7ABFA14
:1049100005F0600010B12046FFF72BFBA08820F0C7
:104920000200A080A08840F00100A0804FF0FF307E
:10493000E0630020A064FEF73AFD2838CB494860C8
:10494000207900F0100038B304F12801C84800F0C5
:104950009DFBC3480068C0EBC00000EB4000C149AC
:10496000096801EB8000C1490860084600680661DB
:10497000A08809688880BD49E0680968C860BB49AB
:10498000606A096848620120A080404602F034FE57
:1049900002F0A8FC002079E70120A08004F12801A2
:1049A000B448FFF759FAB448E16801F0C7FE0020A7
:1049B000E060404602F020FE002067E7404602F03B
:1049C0001BFE384662E770B50546C5EBC50000EB37
:1049D0004000A449096801EB80046169206A8847A6
:1049E0000020A14908802069FFF746FF70BD2DE92E
:1049F000F04105464FF0FF370F2D03D996480D388B
:104A0000BDE8F081C5EBC50000EB400095490968A1
:104A100001EB800402F0E8FD8046A68806F0010064
:104A200018B18D4F0A3F00BF2CE006F0020018B904
:104A3000894F0B3F00BF25E0A08820F00200A08036
:104A4000A08842F22A410840B8B9A08840F004008A
:104A5000A080E18804F12800FEF768FC8748006820
:104A600030B1404602F0C8FD02F040FC0020C7E72C
:104A7000FEF79DFC28387D494860404602F0BCFDA9
:104A80000020BDE7404602F0B7FD3846B8E72DE903
:104A9000F04105464FF0FF376E480068854202D16D
:104AA0006D48BDE8F0816D480068854202D16A48D2
:104AB0000D30F6E76A480068854202D366480D3833
:104AC000EFE7C5EBC50000EB40006649096801EB64
:104AD000800402F089FD8046A68806F0010018B126
:104AE0005D4F0A3F00BF2FE006F0020018B15A4F99
:104AF0000C3F00BF28E006F0100028B15A4800889B
:104B000010B15F4F00BF1FE006F0040038B104F1A0
:104B10002800FEF72BFCA08820F00400A080A088CD
:104B200040F00200A080514800680069A84206D108
:104B3000404602F061FD02F0D9FB0020B1E740469B
:104B400002F05AFD0020ACE7404602F055FD384621
:104B5000A7E770B500244548006800694049096826
:104B6000884202D33C480D3870BD40480068007947
:104B700000F0040008B90020F6E702F035FD054614
:104B80003A490968C888FEF722FC0446012C17D967
:104B90003649096801F12800FFF765F933480068D4
:104BA000808840F004003149096888802F4A1268E3
:104BB000D1882E4A126802F12800FEF7B7FB05E003
:104BC000284602F019FD2448001FCDE7284602F0D0
:104BD00013FD02F08BFB0020C6E770B50446FBF71F
:104BE000B1FA10B12648083870BD1F48008810B1CE
:104BF0001948801FF8E714B9FFF7ABFFF4E702F09C
:104C0000F3FC05461949096801F12800FEF7AEFBDF
:104C100016480068808820F00400144909688880DC
:104C2000124908682146FFF746F910480068808855
:104C300040F020000D4909688880284602F0DCFC1D
:104C400002F054FB0020CFE7C80000207845002088
:104C5000C400002098000020140200029C000020E4
:104C60009400002084000020900000208800002094
:104C7000B0000020A8000020D04A0020C000002082
:104C8000150200032DE9F0410446F748006884420C
:104C900003D34FF6FF70BDE8F081C4EBC40000EB16
:104CA0004000F249096801EB800502F09DFC0746CF
:104CB000287900F0010028B1384602F09DFC4FF63B
:104CC000FF70E8E7EE88384602F096FC3046E2E7EF
:104CD0002DE9F04705460E461F2E02DDE448BDE8EB
:104CE000F087E4480068854202D1E1481130F6E7D8
:104CF000E1480068854202D1DD481F30EFE7DA481D
:104D00000068854202D3DA48001DE8E7C5EBC5001C
:104D100000EB4000D549096801EB800402F064FC17
:104D20008146B4F8048008F0010028B1484602F03A
:104D300063FCCF48C01DD2E708F0040797B104F127
:104D40002800FEF713FBA08820F00400A080E68076
:104D5000A08840F00400A080E18804F12800FEF75C
:104D6000E5FA00E0E680484602F046FC0FB102F0AA
:104D7000BDFA0020B3E770B50446C0490968086968
:104D80002146FFF7A5FF0546284670BD2DE9F041F5
:104D900007460E461546B948046804F12800FEF798
:104DA000E5FAA08820F00400A08004F12808A0887B
:104DB0003043A0804146384600F068F9681C38B19D
:104DC000A08840F04000A08029462046FFF773F8F5
:104DD000BDE8F08170B504460D4604F12800FFF7E8
:104DE00042F8A088A843A080207900F0400030B1AC
:104DF0002046FFF7BEF8A08820F04000A080207970
:104E000000F0020040B9A08840F00400A080E188D2
:104E100004F12800FEF78AFA70BD10B502F0E4FB39
:104E2000044697480088401C95490880204602F0B7
:104E3000E3FB10BD10B502F0D7FB04469048008894
:104E400000280DDD8E480088401E8D4908800846E8
:104E5000008828B9204602F0CFFB02F047FA10BDC7
:104E6000204602F0C9FB00BFF9E72DE9F0410746F3
:104E70000C461CB97E48801EBDE8F0817A48006867
:104E8000874202D37A48001DF6E7C7EBC70000EB64
:104E900040007649096801EB800502F0A5FB8046D9
:104EA000287900F0010028B1404602F0A5FB7048C7
:104EB000C01DE1E728686065A888A084E888E084D0
:104EC000A868A064E868E064D5E91012E86BC4E95A
:104ED0000F12A063A86C6064A86910B1A869C088AB
:104EE00000E014202063E86910B1E869406800E040
:104EF0000F206063A869A062E869E06227621F2250
:104F00002046696A02F007FC0020E077D5E902102C
:104F1000084420F007002065D4E91401401AA06578
:104F2000E06C0068B0F1CC3F12D1E06C061D00E0EF
:104F3000361D606DB04203D93068B0F1CA3FF7D07A
:104F4000A868E16C711A401AE0650020206604E050
:104F50004FF0FF30E06501202066404602F04CFB38
:104F6000002089E72DE9F04104460D461DB940486F
:104F7000801EBDE8F0813C480068844202D33C4872
:104F8000001DF6E7C4EBC40000EB40003749096898
:104F900001EB800602F028FB0746307900F00100A3
:104FA00028B1384602F028FB3148C01DE1E7B0883F
:104FB0002860384602F020FB0020DAE770B504468E
:104FC0000D460A2C00D30A3C15B92948801E70BD35
:104FD00002F00AFB06462B4830F8140028602948E6
:104FE000143000EB44112022281D02F070FB3046E3
:104FF00002F002FB0020EAE710B5FFF7C4F8044610
:10500000204610BD2048006870471C48406810B911
:105010001748001D7047194840680069FAE770B5E5
:10502000044611480068844201D3002070BDC4EBDF
:10503000C40000EB40000D49096801EB800502F057
:10504000D3FA0646287900F0010020B1304602F07C
:10505000D3FA0020EAE7304602F0CEFA686AE5E7C4
:105060004060006070470000940000208400002031
:1050700003020002980000209C000020880000200D
:10508000900000207A450020C000002070B5044642
:105090000D4629462068FEF7DFFE70BD01464868D0
:1050A000884201D1012070470020FCE710B5094873
:1050B000D0E900305A1C40F100000649C1E9002047
:1050C00000F012F8FEF776FFFEF7C6FB10BD0248AF
:1050D00000687047D0000020E40000200020124942
:1050E00008600A20C880704710B50F4800680F4953
:1050F000096888420BD00D4800680B4908600846D3
:10510000C1880B4800880844401E0749888006482B
:1051100081880748008880B2814204D1002002497A
:105120000860FFF716FD10BDEC000020880000208D
:10513000D000002042684A60086042681160416007
:10514000704770B5E14800F0B5F94FF4B471E0482C
:10515000006801F0D4FADF4908600846006808B921
:10516000DD4870BD002411E004EB4400D949096812
:1051700001EBC0056C600020287005F10806D349DA
:1051800008683146FFF7D6FF00BF641C0F2CEBD335
:105190000020E6E72DE9F84306461EB9CE48801CFC
:1051A000BDE8F88302F020FA8146C84800F085F98E
:1051B00040B1484602F020FA00BFC74FFF1CDFF89D
:1051C0001C831FE0C148446800BFD4E900010860A7
:1051D000D4E90010486000206060206000BFA4F1A6
:1051E00008056880012028700020A882286105F148
:1051F000080000F05FF968683060484602F0FCF98A
:105200000020CDE700BF002003463A46414600900B
:10521000B3A001F089FF3846C2E72DE9F8430746FD
:105220000F2F04D300BFAC4D6D1CAC4E2EE007EB2E
:105230004700A849096801EBC00402F0D5F980468F
:10524000207838B9404602F0D7F900BFA24D6D1C56
:10525000A24E1BE004F1080000F02FF908B16088AD
:1052600038B1404602F0C8F900BF9B4D09359B4E4E
:105270000CE004F108019548FFF75CFF0020207066
:10528000404602F0B9F90020BDE8F88300BF0020D5
:1052900003462A463146009091A001F045FF28467A
:1052A000F2E72DE9F843074688460F2F0DD300BFDC
:1052B00000200346884A521C8849009088A001F0CB
:1052C00033FF8548401CBDE8F88307EB4700814960
:1052D000096801EBC00402F087F98146207878B9AB
:1052E000484602F089F900BF002003467A4A521C62
:1052F0007A4900907AA001F017FF7748401CE2E756
:10530000FAF720FF28B1484602F076F97248401DAE
:10531000D9E778480568608850B96088401C60808B
:105320002561E888A082484602F066F90020CAE7B5
:105330002069A84207D16088401C6080484602F07E
:105340005BF90020BFE7B8F1000F05D1484602F035
:1053500053F96148001DB6E76748008850B15E4EBA
:10536000B61D00BF65A002F04DFB66A002F04AFB2F
:1053700000BF27E0EC612069C088E988884203DD2E
:10538000E9882069FEF77BFD4246082104F1080008
:10539000FFF7FCFC484602F02FF901F0A7FF28793F
:1053A00000F0400060B102F01FF98146A88820F0AB
:1053B0004000A880484602F01FF9474EF61D05E060
:1053C000002080E7484602F017F900BF00BF002028
:1053D000034632464149009041A001F0A5FE304607
:1053E00071E72DE9F843064606EB4600394909689E
:1053F00001EBC00402F0F8F880460F2E01D22078AD
:1054000080B9404602F0F8F800BF00200346324A57
:10541000521C3249009032A001F086FE2E48401CFA
:10542000BDE8F88333480768608810B12069B84246
:105430000FD0404602F0E0F800BF00200346264AA5
:10544000521C2649009026A001F06EFE2248401C06
:10545000E6E76088401E80B2608020B1404602F0DE
:10546000CBF80020DCE72069C088A18A884203D0FD
:10547000A18A2069FEF703FD04F1080000F01DF881
:1054800098B9E068A0F12805012060802561E888CE
:10549000A0820020E86108212846FFF79BFC4046D7
:1054A00002F0AAF801F022FF02E0404602F0A4F860
:1054B0000020B5E7406000607047014648688842B8
:1054C00001D1012070470020FCE70000F800002017
:1054D00030010020F4000020001D0002F8C3B2A13A
:1054E0006F735F756E73706563696669635F666924
:1054F0006C65000088000020900000205B4552523F
:105500005D2000002121214C4F535F4552524E4FE8
:105510005F4D55585F50454E445F494E5F4C4F4379
:105520004B2121210A00000042684A60086042685D
:1055300011604160704770B54FF4DC71FA48006843
:1055400001F0DDF8F94908600846006808B9F84834
:1055500070BD4FF4DC71F548006802F0D1F8F548F1
:1055600000F00CFC002412E004EB440000EBC4004B
:10557000EE49096801EB80056C8105F11C06ED49D7
:1055800008683146FFF7D0FF00BF601C84B20A2CC8
:10559000EADB0020DCE72DE9F05F0E469046DDF8FF
:1055A000289009F104001FFA80FAB8F1000F03D126
:1055B000DF480B30BDE8F09F4FF6FB70814502DD00
:1055C000DB48801CF6E716B1B9F1000F02D1D848CC
:1055D0000C30EFE706FB0AF1D348006801F08FF8C2
:1055E000074617B9D248401CE4E701F0FDFF8346A7
:1055F000D04800F0C6FB50B1584601F0FDFF3946D7
:10560000C948006801F09AF8C948C01CD2E7C948E7
:10561000456800BFD5E900010860D5E90010486081
:1056200000206860286000BFA5F11C04E680A4F893
:1056300008A027600120A080002020826682A0812F
:10564000E08104F1140000F099FB04F11C0000F06B
:1056500095FB04F1240000F091FB584601F0CCFFCB
:105660006089C8F800000020A4E72DE9F041054654
:105670000E4614461F460A2D03D3AD480D30BDE833
:10568000F08106B114B9AA480E30F8E7206810B9C5
:10569000A7480F30F3E72FB1FAF754FD10B1A44833
:1056A0001730ECE70020EAE72DE9F04104460D460B
:1056B00016461F460A2C03D39D480D30BDE8F081E5
:1056C00015B99B481130F9E7306810B99848123085
:1056D000F4E72FB1FAF736FD10B195480830EDE741
:1056E0000020EBE72DE9F04704460E4617469846A2
:1056F0004FF00009CA4606F0030020B1012810D07F
:10570000032828D119E0B4F80CA0A089401CE18836
:10571000884202D10020A08102E0A089401CA08123
:1057200023E0A08918B9E088401EA08102E0A0898A
:10573000401EA081B4F80CA017E0B4F80EA0E089D8
:10574000401CE188884202D10020E08102E0E0892B
:10575000401CE08109E000BF77A002F053F978A077
:1057600002F050F900BFBDE8F08700BF2189206832
:105770000AFB010506F0040040B106F0010010B973
:10578000286838601DE0386828601AE006F00100DB
:1057900058B92089284450F8049C4A46294638467E
:1057A00001F095FFC8F800900BE039462846D8F87C
:1057B000002001F08CFF20892844D8F8001040F820
:1057C000041C00BFCFE72DE9FF4F83B081460E4692
:1057D0009846DDF840A00020019006F0010501F098
:1057E00003FF029009EB490000EBC9004F4909682B
:1057F00001EB8004A08818B94D4809300190B9E048
:1058000006F0010048B92089001FD8F80010814235
:1058100003D247481E300190ACE006F0010048B1C9
:105820002089001FD8F80010814203D94048143065
:1058300001909FE004F1100030F8150090BBBAF120
:10584000000F09D106F0010010B939481C3001E001
:105850003748153001908DE04148008818B1344830
:10586000401D019086E03F48076804F1140101EBF8
:10587000C50052464FF40051FFF788FA029801F034
:10588000BBFE01F033FD01F0AFFE0290387900F06D
:10589000400090B1B88820F04000B8802448801DB6
:1058A000019067E0FFE704F1100030F81500401E9A
:1058B00081B204F1100020F815104346314620460D
:1058C000059AFFF70FFF0DB9012200E0002204F155
:1058D000140101EBC20000F054FAC0B90DB9012166
:1058E00000E0002104F1140000EBC1004068A0F1C9
:1058F000280B4FF400515846FFF76CFA029801F05C
:105900007BFE01F0F3FC002007B0BDE8F08F0DB97D
:10591000012100E0002104F1100030F81100401CCA
:1059200081B20DBB012220E03001002000010020E7
:1059300001060002040100205B4552525D20000078
:10594000696E76616C6964207175657565206F702C
:1059500065726174652074797065210A0000000029
:105960009000002088000020002204F1100020F8A0
:10597000121000BF029801F03FFE0198C4E72DE924
:10598000F84381460C4615461E4633462A462146B4
:105990004846FFF76AFE074617B13846BDE8F88368
:1059A0004FF000082B462246414648460096FFF736
:1059B0000AFFF3E72DE9FF4182B080460C461D4601
:1059C0002B4604AA21464046FFF76EFE06461EB14E
:1059D000304606B0BDE8F081012704AB22463946C7
:1059E00040460095FFF7EFFEF3E72DE9FF4182B057
:1059F00080460C461D462B4604AA21464046FFF72A
:105A000053FE06461EB1304606B0BDE8F0810327BE
:105A100004AB2246394640460095FFF7D4FEF3E733
:105A20002DE9FF4182B080460C461D462B4604AA54
:105A300021464046FFF719FE06461EB1304606B025
:105A4000BDE8F081042704AB224639464046009564
:105A5000FFF7B9FEF3E7FFB581B007461C46042007
:105A60000390234603AA38460299FFF71DFE054618
:105A700015B1284605B0F0BD072603AB02AA314692
:105A800038460094FFF79FFEF4E77FB504461546BD
:105A90001E46019810B9BF4804B070BD04253346B6
:105AA0002A4601A92046FFF785FFF5E72DE9F047D3
:105AB00005460E4617464FF00009C84600240A2D39
:105AC00002D30020BDE8F0870EB90020FAE727B125
:105AD000FAF738FB08B10020F4E701F085FD8246B3
